S01200004D6F74696F6E5F4C45442E7372656368
S11300000C9434000C943E000C943E000C943E007E
S11300100C943E000C943E000C943E000C943E0064
S11300200C943E000C943E000C943E000C943E0054
S11300300C943E000C943E000C943E000C943E0044
S11300400C943E000C943E000C943E000C943E0034
S11300500C943E000C943E000C943E000C943E0024
S11300600C943E000C943E0011241FBECFEFD8E048
S1130070DEBFCDBF0E9440000C9453000C940000DE
S113008083E087B9329B0CC081E088B92FE38DE00F
S113009093E0215080409040E1F700C00000F2CF8F
S10D00A082E088B9EFCFF894FFCF97
S9030000FC
